const char * test_5_info = "15:41:36.156106 8c:0d:76:66:7c:1d > 01:00:5e:00:00:01, ethertype IPv4 (0x0800), length 46: (tos 0xc0, ttl 1, id 0, offset 0, flags [DF], proto IGMP (2), length 32, options (RA))\n"
    192.168.1.1 > 224.0.0.1: igmp query v2
        0x0000:  46c0 0020 0000 4000 0102 426d c0a8 0101
        0x0010:  e000 0001 9404 0000 1164 ee9b 0000 0000

15:41:40.310170 98:9e:63:25:99:1c > 01:00:5e:00:00:fb, ethertype IPv4 (0x0800), length 46: (tos 0x0, ttl 1, id 1665, offset 0, flags [none], proto IGMP (2), length 32, options (RA))
    192.168.1.7 > 224.0.0.251: igmp v2 report 224.0.0.251
        0x0000:  4600 0020 0681 0000 0102 7bac c0a8 0107
        0x0010:  e000 00fb 9404 0000 1600 0904 e000 00fb

09:16:57.935478 AF IPv6 (30), length 519: (flowlabel 0x2436b, hlim 255, next-header UDP (17) payload length: 475) fe80::10a0:c436:97f4:e58a.5353 > ff02::fb.5353: [udp sum ok] 0 [3a] [18q] PTR (QM)? _airport._tcp.local. PTR (QM)? _uscan._tcp.local. PTR (QM)? _uscans._tcp.local. PTR (QM)? _ippusb._tcp.local. PTR (QM)? _scanner._tcp.local. PTR (QM)? _ipp._tcp.local. PTR (QM)? _ipps._tcp.local. PTR (QM)? _printer._tcp.local. PTR (QM)? _pdl-datastream._tcp.local. PTR (QM)? _ptp._tcp.local. PTR (QM)? _apple-mobdev._tcp.local. PTR (QM)? 916f07e8._sub._apple-mobdev2._tcp.local. PTR (QM)? _apple-pairable._tcp.local. PTR (QM)? _daap._tcp.local. PTR (QM)? _touch-remote._tcp.local. PTR (QM)? _googlecast._tcp.local. PTR (QM)? _privet._tcp.local. PTR (QM)? _sleep-proxy._udp.local. _scanner._tcp.local. [56m47s] PTR Photosmart 7510 series [B5D209]._scanner._tcp.local., _ipp._tcp.local. [56m47s] PTR Photosmart 7510 series [B5D209]._ipp._tcp.local., _pdl-datastream._tcp.local. [56m47s] PTR Photosmart 7510 series [B5D209]._pdl-datastream._tcp.local. (467)
        0x0000:  6002 436b 01db 11ff fe80 0000 0000 0000
        0x0010:  10a0 c436 97f4 e58a ff02 0000 0000 0000
        0x0020:  0000 0000 0000 00fb 14e9 14e9 01db 4ced
        0x0030:  0000 0000 0012 0003 0000 0000 085f 6169
        0x0040:  7270 6f72 7404 5f74 6370 056c 6f63 616c
        0x0050:  0000 0c00 0106 5f75 7363 616e c015 000c
        0x0060:  0001 075f 7573 6361 6e73 c015 000c 0001
        0x0070:  075f 6970 7075 7362 c015 000c 0001 085f
        0x0080:  7363 616e 6e65 72c0 1500 0c00 0104 5f69
        0x0090:  7070 c015 000c 0001 055f 6970 7073 c015
        0x00a0:  000c 0001 085f 7072 696e 7465 72c0 1500
        0x00b0:  0c00 010f 5f70 646c 2d64 6174 6173 7472
        0x00c0:  6561 6dc0 1500 0c00 0104 5f70 7470 c015
        0x00d0:  000c 0001 0d5f 6170 706c 652d 6d6f 6264
        0x00e0:  6576 c015 000c 0001 0839 3136 6630 3765
        0x00f0:  3804 5f73 7562 0e5f 6170 706c 652d 6d6f
        0x0100:  6264 6576 32c0 1500 0c00 010f 5f61 7070
        0x0110:  6c65 2d70 6169 7261 626c 65c0 1500 0c00
        0x0120:  0105 5f64 6161 70c0 1500 0c00 010d 5f74
        0x0130:  6f75 6368 2d72 656d 6f74 65c0 1500 0c00
        0x0140:  010b 5f67 6f6f 676c 6563 6173 74c0 1500
        0x0150:  0c00 0107 5f70 7269 7665 74c0 1500 0c00
        0x0160:  010c 5f73 6c65 6570 2d70 726f 7879 045f
        0x0170:  7564 70c0 1a00 0c00 01c0 4e00 0c00 0100
        0x0180:  000d 4f00 221f 5068 6f74 6f73 6d61 7274
        0x0190:  2037 3531 3020 7365 7269 6573 205b 4235
        0x01a0:  4432 3039 5dc0 4ec0 5d00 0c00 0100 000d
        0x01b0:  4f00 221f 5068 6f74 6f73 6d61 7274 2037
        0x01c0:  3531 3020 7365 7269 6573 205b 4235 4432
        0x01d0:  3039 5dc0 5dc0 8300 0c00 0100 000d 4f00
        0x01e0:  221f 5068 6f74 6f73 6d61 7274 2037 3531
        0x01f0:  3020 7365 7269 6573 205b 4235 4432 3039
        0x0200:  5dc0 83

09:17:07.334192 AF IPv6 (30), length 60: (flowlabel 0xc52c6, hlim 64, next-header ICMPv6 (58) payload length: 16) fe80::1 > fe80::1: [icmp6 sum ok] ICMP6, echo request, seq 0
        0x0000:  600c 52c6 0010 3a40 fe80 0000 0000 0000
        0x0010:  0000 0000 0000 0001 fe80 0000 0000 0000
        0x0020:  0000 0000 0000 0001 8000 512a ebee 0000
        0x0030:  5ab0 d193 0005 194f

09:17:07.334213 AF IPv6 (30), length 60: (hlim 64, next-header ICMPv6 (58) payload length: 16) fe80::1 > fe80::1: [icmp6 sum ok] ICMP6, echo reply, seq 0
        0x0000:  6000 0000 0010 3a40 fe80 0000 0000 0000
        0x0010:  0000 0000 0000 0001 fe80 0000 0000 0000
        0x0020:  0000 0000 0000 0001 8100 502a ebee 0000
        0x0030:  5ab0 d193 0005 194f
